{
  "_format": "hh-sol-artifact-1",
  "contractName": "ConfidentialCompute",
  "sourceName": "contracts/ConfidentialCompute.sol",
  "abi": [
    {
      "inputs": [
        {
          "components": [
            {
              "internalType": "bytes",
              "name": "data",
              "type": "bytes"
            },
            {
              "internalType": "int32",
              "name": "securityZone",
              "type": "int32"
            }
          ],
          "internalType": "struct inEuint32",
          "name": "inData",
          "type": "tuple"
        }
      ],
      "name": "setEncryptedData",
      "outputs": [],
      "stateMutability": "nonpayable",
      "type": "function"
    }
  ],
  "bytecode": "0x6080604052348015600e575f80fd5b506105568061001c5f395ff3fe608060405234801561000f575f80fd5b5060043610610029575f3560e01c80636f7de0f61461002d575b5f80fd5b61004760048036038101906100429190610169565b610049565b005b61005b8161005690610393565b610063565b5f8190555050565b5f610075825f0151836020015161007c565b9050919050565b5f61008983600284610091565b905092915050565b5f6060608073ffffffffffffffffffffffffffffffffffffffff166321b50ba38587866040518463ffffffff1660e01b81526004016100d29392919061042f565b5f60405180830381865afa1580156100ec573d5f803e3d5ffd5b505050506040513d5f823e3d601f19601f8201168201806040525081019061011491906104d9565b905061011f81610129565b9150509392505050565b5f60208201519050919050565b5f604051905090565b5f80fd5b5f80fd5b5f80fd5b5f604082840312156101605761015f610147565b5b81905092915050565b5f6020828403121561017e5761017d61013f565b5b5f82013567ffffffffffffffff81111561019b5761019a610143565b5b6101a78482850161014b565b91505092915050565b5f80fd5b5f601f19601f8301169050919050565b7f4e487b71000000000000000000000000000000000000000000000000000000005f52604160045260245ffd5b6101fa826101b4565b810181811067ffffffffffffffff82111715610219576102186101c4565b5b80604052505050565b5f61022b610136565b905061023782826101f1565b919050565b5f80fd5b5f80fd5b5f80fd5b5f67ffffffffffffffff821115610262576102616101c4565b5b61026b826101b4565b9050602081019050919050565b828183375f83830152505050565b5f61029861029384610248565b610222565b9050828152602081018484840111156102b4576102b3610244565b5b6102bf848285610278565b509392505050565b5f82601f8301126102db576102da610240565b5b81356102eb848260208601610286565b91505092915050565b5f8160030b9050919050565b610309816102f4565b8114610313575f80fd5b50565b5f8135905061032481610300565b92915050565b5f6040828403121561033f5761033e6101b0565b5b6103496040610222565b90505f82013567ffffffffffffffff8111156103685761036761023c565b5b610374848285016102c7565b5f83015250602061038784828501610316565b60208301525092915050565b5f61039e368361032a565b9050919050565b5f60ff82169050919050565b6103ba816103a5565b82525050565b5f81519050919050565b5f82825260208201905092915050565b8281835e5f83830152505050565b5f6103f2826103c0565b6103fc81856103ca565b935061040c8185602086016103da565b610415816101b4565b840191505092915050565b610429816102f4565b82525050565b5f6060820190506104425f8301866103b1565b818103602083015261045481856103e8565b90506104636040830184610420565b949350505050565b5f61047d61047884610248565b610222565b90508281526020810184848401111561049957610498610244565b5b6104a48482856103da565b509392505050565b5f82601f8301126104c0576104bf610240565b5b81516104d084826020860161046b565b91505092915050565b5f602082840312156104ee576104ed61013f565b5b5f82015167ffffffffffffffff81111561050b5761050a610143565b5b610517848285016104ac565b9150509291505056fea2646970667358221220ca1e16dd33711dad013f34d33fb9c0bd4d07ae796d3a7feb7f61862ece46267564736f6c63430008190033",
  "linkReferences": {},
  "deployedLinkReferences": {}
}